{
    "contractName": "RedemptionIdle",
    "abi": [
        {
            "inputs": [
                {
                    "internalType": "address",
                    "name": "_admin",
                    "type": "address"
                },
                {
                    "internalType": "address",
                    "name": "_ustb",
                    "type": "address"
                },
                {
                    "internalType": "address",
                    "name": "_ustbChainlinkFeedAddress",
                    "type": "address"
                },
                {
                    "internalType": "address",
                    "name": "_usdc",
                    "type": "address"
                },
                {
                    "internalType": "uint256",
                    "name": "_maximumOracleDelay",
                    "type": "uint256"
                }
            ],
            "stateMutability": "nonpayable",
            "type": "constructor"
        },
        {
            "inputs": [
                {
                    "internalType": "address",
                    "name": "target",
                    "type": "address"
                }
            ],
            "name": "AddressEmptyCode",
            "type": "error"
        },
        {
            "inputs": [
                {
                    "internalType": "address",
                    "name": "account",
                    "type": "address"
                }
            ],
            "name": "AddressInsufficientBalance",
            "type": "error"
        },
        {
            "inputs": [],
            "name": "BadArgs",
            "type": "error"
        },
        {
            "inputs": [],
            "name": "BadChainlinkData",
            "type": "error"
        },
        {
            "inputs": [],
            "name": "EnforcedPause",
            "type": "error"
        },
        {
            "inputs": [],
            "name": "ExpectedPause",
            "type": "error"
        },
        {
            "inputs": [],
            "name": "FailedInnerCall",
            "type": "error"
        },
        {
            "inputs": [],
            "name": "InsufficientBalance",
            "type": "error"
        },
        {
            "inputs": [
                {
                    "internalType": "address",
                    "name": "token",
                    "type": "address"
                }
            ],
            "name": "SafeERC20FailedOperation",
            "type": "error"
        },
        {
            "inputs": [],
            "name": "Unauthorized",
            "type": "error"
        },
        {
            "anonymous": false,
            "inputs": [
                {
                    "indexed": true,
                    "internalType": "address",
                    "name": "token",
                    "type": "address"
                },
                {
                    "indexed": true,
                    "internalType": "address",
                    "name": "depositor",
                    "type": "address"
                },
                {
                    "indexed": false,
                    "internalType": "uint256",
                    "name": "amount",
                    "type": "uint256"
                }
            ],
            "name": "Deposit",
            "type": "event"
        },
        {
            "anonymous": false,
            "inputs": [
                {
                    "indexed": false,
                    "internalType": "address",
                    "name": "account",
                    "type": "address"
                }
            ],
            "name": "Paused",
            "type": "event"
        },
        {
            "anonymous": false,
            "inputs": [
                {
                    "indexed": true,
                    "internalType": "address",
                    "name": "redeemer",
                    "type": "address"
                },
                {
                    "indexed": false,
                    "internalType": "uint256",
                    "name": "ustbInAmount",
                    "type": "uint256"
                },
                {
                    "indexed": false,
                    "internalType": "uint256",
                    "name": "usdcOutAmount",
                    "type": "uint256"
                }
            ],
            "name": "Redeem",
            "type": "event"
        },
        {
            "anonymous": false,
            "inputs": [
                {
                    "indexed": false,
                    "internalType": "uint256",
                    "name": "oldMaxOracleDelay",
                    "type": "uint256"
                },
                {
                    "indexed": false,
                    "internalType": "uint256",
                    "name": "newMaxOracleDelay",
                    "type": "uint256"
                }
            ],
            "name": "SetMaximumOracleDelay",
            "type": "event"
        },
        {
            "anonymous": false,
            "inputs": [
                {
                    "indexed": false,
                    "internalType": "address",
                    "name": "account",
                    "type": "address"
                }
            ],
            "name": "Unpaused",
            "type": "event"
        },
        {
            "anonymous": false,
            "inputs": [
                {
                    "indexed": true,
                    "internalType": "address",
                    "name": "token",
                    "type": "address"
                },
                {
                    "indexed": true,
                    "internalType": "address",
                    "name": "withdrawer",
                    "type": "address"
                },
                {
                    "indexed": true,
                    "internalType": "address",
                    "name": "to",
                    "type": "address"
                },
                {
                    "indexed": false,
                    "internalType": "uint256",
                    "name": "amount",
                    "type": "uint256"
                }
            ],
            "name": "Withdraw",
            "type": "event"
        },
        {
            "stateMutability": "payable",
            "type": "fallback"
        },
        {
            "inputs": [],
            "name": "ADMIN",
            "outputs": [
                {
                    "internalType": "address",
                    "name": "",
                    "type": "address"
                }
            ],
            "stateMutability": "view",
            "type": "function"
        },
        {
            "inputs": [],
            "name": "CHAINLINK_FEED_ADDRESS",
            "outputs": [
                {
                    "internalType": "address",
                    "name": "",
                    "type": "address"
                }
            ],
            "stateMutability": "view",
            "type": "function"
        },
        {
            "inputs": [],
            "name": "CHAINLINK_FEED_DECIMALS",
            "outputs": [
                {
                    "internalType": "uint8",
                    "name": "",
                    "type": "uint8"
                }
            ],
            "stateMutability": "view",
            "type": "function"
        },
        {
            "inputs": [],
            "name": "CHAINLINK_FEED_PRECISION",
            "outputs": [
                {
                    "internalType": "uint256",
                    "name": "",
                    "type": "uint256"
                }
            ],
            "stateMutability": "view",
            "type": "function"
        },
        {
            "inputs": [],
            "name": "MINIMUM_ACCEPTABLE_PRICE",
            "outputs": [
                {
                    "internalType": "uint256",
                    "name": "",
                    "type": "uint256"
                }
            ],
            "stateMutability": "view",
            "type": "function"
        },
        {
            "inputs": [],
            "name": "USDC",
            "outputs": [
                {
                    "internalType": "contract IERC20",
                    "name": "",
                    "type": "address"
                }
            ],
            "stateMutability": "view",
            "type": "function"
        },
        {
            "inputs": [],
            "name": "USDC_DECIMALS",
            "outputs": [
                {
                    "internalType": "uint256",
                    "name": "",
                    "type": "uint256"
                }
            ],
            "stateMutability": "view",
            "type": "function"
        },
        {
            "inputs": [],
            "name": "USDC_PRECISION",
            "outputs": [
                {
                    "internalType": "uint256",
                    "name": "",
                    "type": "uint256"
                }
            ],
            "stateMutability": "view",
            "type": "function"
        },
        {
            "inputs": [],
            "name": "USTB",
            "outputs": [
                {
                    "internalType": "contract IERC20",
                    "name": "",
                    "type": "address"
                }
            ],
            "stateMutability": "view",
            "type": "function"
        },
        {
            "inputs": [],
            "name": "USTB_DECIMALS",
            "outputs": [
                {
                    "internalType": "uint256",
                    "name": "",
                    "type": "uint256"
                }
            ],
            "stateMutability": "view",
            "type": "function"
        },
        {
            "inputs": [],
            "name": "USTB_PRECISION",
            "outputs": [
                {
                    "internalType": "uint256",
                    "name": "",
                    "type": "uint256"
                }
            ],
            "stateMutability": "view",
            "type": "function"
        },
        {
            "inputs": [],
            "name": "getChainlinkPrice",
            "outputs": [
                {
                    "internalType": "bool",
                    "name": "_isBadData",
                    "type": "bool"
                },
                {
                    "internalType": "uint256",
                    "name": "_updatedAt",
                    "type": "uint256"
                },
                {
                    "internalType": "uint256",
                    "name": "_price",
                    "type": "uint256"
                }
            ],
            "stateMutability": "view",
            "type": "function"
        },
        {
            "inputs": [],
            "name": "maxUstbRedemptionAmount",
            "outputs": [
                {
                    "internalType": "uint256",
                    "name": "_ustbAmount",
                    "type": "uint256"
                }
            ],
            "stateMutability": "view",
            "type": "function"
        },
        {
            "inputs": [],
            "name": "maximumOracleDelay",
            "outputs": [
                {
                    "internalType": "uint256",
                    "name": "",
                    "type": "uint256"
                }
            ],
            "stateMutability": "view",
            "type": "function"
        },
        {
            "inputs": [],
            "name": "pause",
            "outputs": [],
            "stateMutability": "nonpayable",
            "type": "function"
        },
        {
            "inputs": [],
            "name": "paused",
            "outputs": [
                {
                    "internalType": "bool",
                    "name": "",
                    "type": "bool"
                }
            ],
            "stateMutability": "view",
            "type": "function"
        },
        {
            "inputs": [
                {
                    "internalType": "uint256",
                    "name": "ustbInAmount",
                    "type": "uint256"
                }
            ],
            "name": "redeem",
            "outputs": [],
            "stateMutability": "nonpayable",
            "type": "function"
        },
        {
            "inputs": [
                {
                    "internalType": "uint256",
                    "name": "_newMaxOracleDelay",
                    "type": "uint256"
                }
            ],
            "name": "setMaximumOracleDelay",
            "outputs": [],
            "stateMutability": "nonpayable",
            "type": "function"
        },
        {
            "inputs": [],
            "name": "unpause",
            "outputs": [],
            "stateMutability": "nonpayable",
            "type": "function"
        },
        {
            "inputs": [
                {
                    "internalType": "address",
                    "name": "_token",
                    "type": "address"
                },
                {
                    "internalType": "address",
                    "name": "to",
                    "type": "address"
                },
                {
                    "internalType": "uint256",
                    "name": "amount",
                    "type": "uint256"
                }
            ],
            "name": "withdraw",
            "outputs": [],
            "stateMutability": "nonpayable",
            "type": "function"
        },
        {
            "stateMutability": "payable",
            "type": "receive"
        }
    ],
    "bytecode": "61016080604052346101e65760a081610ef780380380916100208285610276565b8339810103126101e657610033816102ad565b61003f602083016102ad565b9061004c604084016102ad565b9160046020608061005f606088016102ad565b9601515f805460ff19169055608086905260405163313ce56760e01b815290959092839182906001600160a01b03165afa908115610219576100b09160ff915f91610257575b508060a052166102da565b60c0526100c160ff60a051166102da565b91826007029260078404036102435760049360209360e0526001556101405260018060a01b031692836101005260018060a01b03169283610120526040519283809263313ce56760e01b82525afa9081156102195760069160ff915f91610224575b5016036101e65760206004916040519283809263313ce56760e01b82525afa9081156102195760069160ff915f916101ea575b5016036101e657604051610c0e90816102e982396080518181816107dd015261093d015260a0518161052a015260c05181818161018c015281816104ee0152610672015260e051818181610821015261097a01526101005181818161010e01526102180152610120518181816101cb0152818161056301526106290152610140518181816107990152610a120152f35b5f80fd5b61020c915060203d602011610212575b6102048183610276565b8101906102c1565b5f610156565b503d6101fa565b6040513d5f823e3d90fd5b61023d915060203d602011610212576102048183610276565b5f610123565b634e487b7160e01b5f52601160045260245ffd5b610270915060203d602011610212576102048183610276565b5f6100a5565b601f909101601f19168101906001600160401b0382119082101761029957604052565b634e487b7160e01b5f52604160045260245ffd5b51906001600160a01b03821682036101e657565b908160209103126101e6575160ff811681036101e65790565b604d811161024357600a0a9056fe6080806040526004361015610015575b505b5f80fd5b5f905f3560e01c9081630a1b80051461080c5750806320bf30fc146107c85780632a0acc6a146107845780632e54cd34146104555780633aeef3d3146107555780633f4ba83a146106f95780635c975abb146106d85780637faea7f1146105f15780638456cb591461059257806389a302711461054e5780638b8b2c91146105115780638e7dc4c0146104d7578063a20d27d2146104d2578063c1419def146104d2578063cede91a4146104b5578063d2333be71461045a578063d621fca714610455578063d9caed1214610369578063db006a75146101405763fd84802b0361000f573461013d578060031936011261013d576040517f00000000000000000000000000000000000000000000000000000000000000006001600160a01b03168152602090f35b80fd5b503461001157602036600319011261001157600435801561035a57610163610a6b565b61016b610928565b91905061034b576101876101826101b692846108e0565b6108b2565b6101b07f00000000000000000000000000000000000000000000000000000000000000006108b2565b906108f3565b6040516370a0823160e01b81523060048201527f0000000000000000000000000000000000000000000000000000000000000000906020816024816001600160a01b0386165afa80156102fc5783915f91610316575b501061030757610279827f0000000000000000000000000000000000000000000000000000000000000000926102726040516323b872dd60e01b60208201523360248201523060448201528760648201526064815261026c60848261087c565b85610ac7565b3390610a85565b6001600160a01b0316803b15610011575f8091602460405180948193630852cd8d60e31b83528860048401525af180156102fc576102e7575b5060405191825260208201527fe5b754fb1abb7f01b499791d0b820ae3b6af3424ac1c59768edb53f4ec31a92960403392a280f35b6102f49193505f9061087c565b5f915f6102b2565b6040513d5f823e3d90fd5b631e9acf1760e31b5f5260045ffd5b9150506020813d602011610343575b816103326020938361087c565b81010312610011578290515f61020c565b3d9150610325565b6318b4700960e31b5f5260045ffd5b634e70768d60e01b5f5260045ffd5b34610011576060366003190112610011576004356001600160a01b03811690819003610011576024356001600160a01b0381169182820361001157604435916103b0610a10565b821561035a576040516370a0823160e01b8152306004820152602081602481865afa80156102fc5784915f91610420575b501061030757826103f29183610a85565b6040519182527f3115d1449a7b732c986cba18244e897a450f61e1bb8d589cd2e69e6c8924f9f760203393a4005b9150506020813d60201161044d575b8161043c6020938361087c565b8101031261001157839051866103e1565b3d915061042f565b610844565b3461001157602036600319011261001157600435610476610a10565b60015481811461035a5760407fd72ef688fa430b6a285b84371ba35e8a8e0762b32c1deb7be9d9c111ca79f5ea918151908152836020820152a1600155005b34610011575f366003190112610011576020600154604051908152f35b610861565b34610011575f3660031901126100115760206040517f00000000000000000000000000000000000000000000000000000000000000008152f35b34610011575f36600319011261001157602060405160ff7f0000000000000000000000000000000000000000000000000000000000000000168152f35b34610011575f366003190112610011576040517f00000000000000000000000000000000000000000000000000000000000000006001600160a01b03168152602090f35b34610011575f366003190112610011576105aa610a10565b6105b2610a6b565b6105ba610a6b565b600160ff195f5416175f557f62e78cea01bee320cd4e420270b5ea74000d11b0c9f74754ebdbfc544b05a2586020604051338152a1005b34610011575f36600319011261001157610609610928565b6040516370a0823160e01b815230600482015290925090506020816024817f00000000000000000000000000000000000000000000000000000000000000006001600160a01b03165afa9081156102fc575f916106a5575b602061069d846101b06106976101827f0000000000000000000000000000000000000000000000000000000000000000886108e0565b916108b2565b604051908152f35b90506020813d6020116106d0575b816106c06020938361087c565b8101031261001157516020610661565b3d91506106b3565b34610011575f36600319011261001157602060ff5f54166040519015158152f35b34610011575f36600319011261001157610711610a10565b610719610a50565b610721610a50565b60ff195f54165f557f5db9ee0a495bf2e6ff9c91a7834c1ba4fdd244a5e8aa4e537bd38aeae4b073aa6020604051338152a1005b34610011575f36600319011261001157606061076f610928565b90604051921515835260208301526040820152f35b34610011575f366003190112610011576040517f00000000000000000000000000000000000000000000000000000000000000006001600160a01b03168152602090f35b34610011575f366003190112610011576040517f00000000000000000000000000000000000000000000000000000000000000006001600160a01b03168152602090f35b34610011575f366003190112610011576020907f00000000000000000000000000000000000000000000000000000000000000008152f35b34610011575f366003190112610011576020604051620f42408152f35b34610011575f36600319011261001157602060405160068152f35b90601f8019910116810190811067ffffffffffffffff82111761089e57604052565b634e487b7160e01b5f52604160045260245ffd5b90620f4240820291808304620f424014901517156108cc57565b634e487b7160e01b5f52601160045260245ffd5b818102929181159184041417156108cc57565b81156108fd570490565b634e487b7160e01b5f52601260045260245ffd5b519069ffffffffffffffffffff8216820361001157565b604051633fabe5a360e21b815260a0816004817f00000000000000000000000000000000000000000000000000000000000000006001600160a01b03165afa9182156102fc575f915f936109ba575b507f0000000000000000000000000000000000000000000000000000000000000000821280156109a657929190565b508242034281116108cc5760015410929190565b9150915060a0813d60a011610a08575b816109d760a0938361087c565b81010312610011576109e881610911565b5060208101516109ff608060608401519301610911565b5090915f610977565b3d91506109ca565b7f00000000000000000000000000000000000000000000000000000000000000006001600160a01b03163303610a4257565b6282b42960e81b5f5260045ffd5b60ff5f541615610a5c57565b638dfc202b60e01b5f5260045ffd5b60ff5f5416610a7657565b63d93c066560e01b5f5260045ffd5b60405163a9059cbb60e01b60208201526001600160a01b039092166024830152604480830193909352918152610ac591610ac060648361087c565b610ac7565b565b81516001600160a01b03909116915f91829160200182855af13d15610b6e573d67ffffffffffffffff811161089e57610b229160405191610b126020601f19601f840116018461087c565b82523d5f602084013e5b83610b7a565b8051908115159182610b4a575b5050610b385750565b635274afe760e01b5f5260045260245ffd5b81925090602091810103126100115760200151801590811503610011575f80610b2f565b610b2290606090610b1c565b90610b9e5750805115610b8f57805190602001fd5b630a12f52160e11b5f5260045ffd5b81511580610bcf575b610baf575090565b639996b31560e01b5f9081526001600160a01b0391909116600452602490fd5b50803b15610ba756fea2646970667358221220d51ad8dc02a4692897d0de487b4a4cb436869dc7fff15faf1d432d9349196e3264736f6c634300081b0033",
    "sourcePath": "/Users/maxwolff/superstate-src/onchain-redemptions/src/RedemptionIdle.sol",
    "compiler": {
        "name": "solc",
        "version": "0.8.27+commit.40a35a09"
    },
    "functionHashes": {
        "ADMIN()": "2a0acc6a",
        "CHAINLINK_FEED_ADDRESS()": "20bf30fc",
        "CHAINLINK_FEED_DECIMALS()": "8b8b2c91",
        "CHAINLINK_FEED_PRECISION()": "8e7dc4c0",
        "MINIMUM_ACCEPTABLE_PRICE()": "0a1b8005",
        "USDC()": "89a30271",
        "USDC_DECIMALS()": "c1419def",
        "USDC_PRECISION()": "d621fca7",
        "USTB()": "fd84802b",
        "USTB_DECIMALS()": "a20d27d2",
        "USTB_PRECISION()": "2e54cd34",
        "getChainlinkPrice()": "3aeef3d3",
        "maxUstbRedemptionAmount()": "7faea7f1",
        "maximumOracleDelay()": "cede91a4",
        "pause()": "8456cb59",
        "paused()": "5c975abb",
        "redeem(uint256)": "db006a75",
        "setMaximumOracleDelay(uint256)": "d2333be7",
        "unpause()": "3f4ba83a",
        "withdraw(address,address,uint256)": "d9caed12"
    },
    "gasEstimates": {
        "creation": {
            "codeDepositCost": "617200",
            "executionCost": "infinite",
            "totalCost": "infinite"
        },
        "external": {
            "": "513",
            "ADMIN()": "infinite",
            "CHAINLINK_FEED_ADDRESS()": "infinite",
            "CHAINLINK_FEED_DECIMALS()": "infinite",
            "CHAINLINK_FEED_PRECISION()": "infinite",
            "MINIMUM_ACCEPTABLE_PRICE()": "infinite",
            "USDC()": "infinite",
            "USDC_DECIMALS()": "456",
            "USDC_PRECISION()": "522",
            "USTB()": "infinite",
            "USTB_DECIMALS()": "434",
            "USTB_PRECISION()": "236",
            "getChainlinkPrice()": "infinite",
            "maxUstbRedemptionAmount()": "infinite",
            "maximumOracleDelay()": "2569",
            "pause()": "infinite",
            "paused()": "2404",
            "redeem(uint256)": "infinite",
            "setMaximumOracleDelay(uint256)": "infinite",
            "unpause()": "infinite",
            "withdraw(address,address,uint256)": "infinite"
        },
        "internal": {
            "_getChainlinkPrice()": "infinite",
            "_requireAuthorized()": "infinite",
            "_setMaximumOracleDelay(uint256)": "infinite"
        }
    }
}