{
    "contractName": "RedemptionYield",
    "abi": [
        {
            "inputs": [
                {
                    "internalType": "address",
                    "name": "_admin",
                    "type": "address"
                },
                {
                    "internalType": "address",
                    "name": "_ustb",
                    "type": "address"
                },
                {
                    "internalType": "address",
                    "name": "_ustbChainlinkFeedAddress",
                    "type": "address"
                },
                {
                    "internalType": "address",
                    "name": "_usdc",
                    "type": "address"
                },
                {
                    "internalType": "uint256",
                    "name": "_maximumOracleDelay",
                    "type": "uint256"
                },
                {
                    "internalType": "address",
                    "name": "_compound",
                    "type": "address"
                }
            ],
            "stateMutability": "nonpayable",
            "type": "constructor"
        },
        {
            "inputs": [
                {
                    "internalType": "address",
                    "name": "target",
                    "type": "address"
                }
            ],
            "name": "AddressEmptyCode",
            "type": "error"
        },
        {
            "inputs": [
                {
                    "internalType": "address",
                    "name": "account",
                    "type": "address"
                }
            ],
            "name": "AddressInsufficientBalance",
            "type": "error"
        },
        {
            "inputs": [],
            "name": "BadArgs",
            "type": "error"
        },
        {
            "inputs": [],
            "name": "BadChainlinkData",
            "type": "error"
        },
        {
            "inputs": [],
            "name": "EnforcedPause",
            "type": "error"
        },
        {
            "inputs": [],
            "name": "ExpectedPause",
            "type": "error"
        },
        {
            "inputs": [],
            "name": "FailedInnerCall",
            "type": "error"
        },
        {
            "inputs": [],
            "name": "InsufficientBalance",
            "type": "error"
        },
        {
            "inputs": [
                {
                    "internalType": "address",
                    "name": "token",
                    "type": "address"
                }
            ],
            "name": "SafeERC20FailedOperation",
            "type": "error"
        },
        {
            "inputs": [],
            "name": "Unauthorized",
            "type": "error"
        },
        {
            "anonymous": false,
            "inputs": [
                {
                    "indexed": true,
                    "internalType": "address",
                    "name": "token",
                    "type": "address"
                },
                {
                    "indexed": true,
                    "internalType": "address",
                    "name": "depositor",
                    "type": "address"
                },
                {
                    "indexed": false,
                    "internalType": "uint256",
                    "name": "amount",
                    "type": "uint256"
                }
            ],
            "name": "Deposit",
            "type": "event"
        },
        {
            "anonymous": false,
            "inputs": [
                {
                    "indexed": false,
                    "internalType": "address",
                    "name": "account",
                    "type": "address"
                }
            ],
            "name": "Paused",
            "type": "event"
        },
        {
            "anonymous": false,
            "inputs": [
                {
                    "indexed": true,
                    "internalType": "address",
                    "name": "redeemer",
                    "type": "address"
                },
                {
                    "indexed": false,
                    "internalType": "uint256",
                    "name": "ustbInAmount",
                    "type": "uint256"
                },
                {
                    "indexed": false,
                    "internalType": "uint256",
                    "name": "usdcOutAmount",
                    "type": "uint256"
                }
            ],
            "name": "Redeem",
            "type": "event"
        },
        {
            "anonymous": false,
            "inputs": [
                {
                    "indexed": false,
                    "internalType": "uint256",
                    "name": "oldMaxOracleDelay",
                    "type": "uint256"
                },
                {
                    "indexed": false,
                    "internalType": "uint256",
                    "name": "newMaxOracleDelay",
                    "type": "uint256"
                }
            ],
            "name": "SetMaximumOracleDelay",
            "type": "event"
        },
        {
            "anonymous": false,
            "inputs": [
                {
                    "indexed": false,
                    "internalType": "address",
                    "name": "account",
                    "type": "address"
                }
            ],
            "name": "Unpaused",
            "type": "event"
        },
        {
            "anonymous": false,
            "inputs": [
                {
                    "indexed": true,
                    "internalType": "address",
                    "name": "token",
                    "type": "address"
                },
                {
                    "indexed": true,
                    "internalType": "address",
                    "name": "withdrawer",
                    "type": "address"
                },
                {
                    "indexed": true,
                    "internalType": "address",
                    "name": "to",
                    "type": "address"
                },
                {
                    "indexed": false,
                    "internalType": "uint256",
                    "name": "amount",
                    "type": "uint256"
                }
            ],
            "name": "Withdraw",
            "type": "event"
        },
        {
            "stateMutability": "payable",
            "type": "fallback"
        },
        {
            "inputs": [],
            "name": "ADMIN",
            "outputs": [
                {
                    "internalType": "address",
                    "name": "",
                    "type": "address"
                }
            ],
            "stateMutability": "view",
            "type": "function"
        },
        {
            "inputs": [],
            "name": "CHAINLINK_FEED_ADDRESS",
            "outputs": [
                {
                    "internalType": "address",
                    "name": "",
                    "type": "address"
                }
            ],
            "stateMutability": "view",
            "type": "function"
        },
        {
            "inputs": [],
            "name": "CHAINLINK_FEED_DECIMALS",
            "outputs": [
                {
                    "internalType": "uint8",
                    "name": "",
                    "type": "uint8"
                }
            ],
            "stateMutability": "view",
            "type": "function"
        },
        {
            "inputs": [],
            "name": "CHAINLINK_FEED_PRECISION",
            "outputs": [
                {
                    "internalType": "uint256",
                    "name": "",
                    "type": "uint256"
                }
            ],
            "stateMutability": "view",
            "type": "function"
        },
        {
            "inputs": [],
            "name": "COMPOUND",
            "outputs": [
                {
                    "internalType": "contract IComet",
                    "name": "",
                    "type": "address"
                }
            ],
            "stateMutability": "view",
            "type": "function"
        },
        {
            "inputs": [],
            "name": "MINIMUM_ACCEPTABLE_PRICE",
            "outputs": [
                {
                    "internalType": "uint256",
                    "name": "",
                    "type": "uint256"
                }
            ],
            "stateMutability": "view",
            "type": "function"
        },
        {
            "inputs": [],
            "name": "USDC",
            "outputs": [
                {
                    "internalType": "contract IERC20",
                    "name": "",
                    "type": "address"
                }
            ],
            "stateMutability": "view",
            "type": "function"
        },
        {
            "inputs": [],
            "name": "USDC_DECIMALS",
            "outputs": [
                {
                    "internalType": "uint256",
                    "name": "",
                    "type": "uint256"
                }
            ],
            "stateMutability": "view",
            "type": "function"
        },
        {
            "inputs": [],
            "name": "USDC_PRECISION",
            "outputs": [
                {
                    "internalType": "uint256",
                    "name": "",
                    "type": "uint256"
                }
            ],
            "stateMutability": "view",
            "type": "function"
        },
        {
            "inputs": [],
            "name": "USTB",
            "outputs": [
                {
                    "internalType": "contract IERC20",
                    "name": "",
                    "type": "address"
                }
            ],
            "stateMutability": "view",
            "type": "function"
        },
        {
            "inputs": [],
            "name": "USTB_DECIMALS",
            "outputs": [
                {
                    "internalType": "uint256",
                    "name": "",
                    "type": "uint256"
                }
            ],
            "stateMutability": "view",
            "type": "function"
        },
        {
            "inputs": [],
            "name": "USTB_PRECISION",
            "outputs": [
                {
                    "internalType": "uint256",
                    "name": "",
                    "type": "uint256"
                }
            ],
            "stateMutability": "view",
            "type": "function"
        },
        {
            "inputs": [
                {
                    "internalType": "uint256",
                    "name": "usdcAmount",
                    "type": "uint256"
                }
            ],
            "name": "deposit",
            "outputs": [],
            "stateMutability": "nonpayable",
            "type": "function"
        },
        {
            "inputs": [],
            "name": "getChainlinkPrice",
            "outputs": [
                {
                    "internalType": "bool",
                    "name": "_isBadData",
                    "type": "bool"
                },
                {
                    "internalType": "uint256",
                    "name": "_updatedAt",
                    "type": "uint256"
                },
                {
                    "internalType": "uint256",
                    "name": "_price",
                    "type": "uint256"
                }
            ],
            "stateMutability": "view",
            "type": "function"
        },
        {
            "inputs": [],
            "name": "maxUstbRedemptionAmount",
            "outputs": [
                {
                    "internalType": "uint256",
                    "name": "_ustbAmount",
                    "type": "uint256"
                }
            ],
            "stateMutability": "view",
            "type": "function"
        },
        {
            "inputs": [],
            "name": "maximumOracleDelay",
            "outputs": [
                {
                    "internalType": "uint256",
                    "name": "",
                    "type": "uint256"
                }
            ],
            "stateMutability": "view",
            "type": "function"
        },
        {
            "inputs": [],
            "name": "pause",
            "outputs": [],
            "stateMutability": "nonpayable",
            "type": "function"
        },
        {
            "inputs": [],
            "name": "paused",
            "outputs": [
                {
                    "internalType": "bool",
                    "name": "",
                    "type": "bool"
                }
            ],
            "stateMutability": "view",
            "type": "function"
        },
        {
            "inputs": [
                {
                    "internalType": "uint256",
                    "name": "ustbInAmount",
                    "type": "uint256"
                }
            ],
            "name": "redeem",
            "outputs": [],
            "stateMutability": "nonpayable",
            "type": "function"
        },
        {
            "inputs": [
                {
                    "internalType": "uint256",
                    "name": "_newMaxOracleDelay",
                    "type": "uint256"
                }
            ],
            "name": "setMaximumOracleDelay",
            "outputs": [],
            "stateMutability": "nonpayable",
            "type": "function"
        },
        {
            "inputs": [],
            "name": "unpause",
            "outputs": [],
            "stateMutability": "nonpayable",
            "type": "function"
        },
        {
            "inputs": [
                {
                    "internalType": "address",
                    "name": "_token",
                    "type": "address"
                },
                {
                    "internalType": "address",
                    "name": "to",
                    "type": "address"
                },
                {
                    "internalType": "uint256",
                    "name": "amount",
                    "type": "uint256"
                }
            ],
            "name": "withdraw",
            "outputs": [],
            "stateMutability": "nonpayable",
            "type": "function"
        },
        {
            "stateMutability": "payable",
            "type": "receive"
        }
    ],
    "bytecode": "61018080604052346102345760c08161141a803803809161002082856102c4565b83398101031261023457610033816102fb565b90610040602082016102fb565b9161004d604083016102fb565b9261005a606084016102fb565b906004602061007060a0608088015197016102fb565b5f805460ff19169055608088905260405163313ce56760e01b815290979092839182906001600160a01b03165afa908115610267576100be9160ff915f916102a5575b508060a05216610328565b60c0526100cf60ff60a05116610328565b92836007029360078504036102915760049460209460e0526001556101605260018060a01b031690816101005260018060a01b031693846101205260018060a01b0316610140526040519283809263313ce56760e01b82525afa9081156102675760069160ff915f91610272575b5016036102345760206004916040519283809263313ce56760e01b82525afa9081156102675760069160ff915f91610238575b501603610234576040516110e390816103378239608051818181610c9a0152610e12015260a051816109e7015260c0518181816101a2015281816109ab0152610b2f015260e051818181610cde0152610e4f015261010051818181610124015261022c01526101205181818161027c015281816104cf015281816105c70152818161083a0152610a200152610140518181816101e101528181610467015281816107e60152818161087c0152610ae6015261016051818181610c560152610ee70152f35b5f80fd5b61025a915060203d602011610260575b61025281836102c4565b81019061030f565b5f610170565b503d610248565b6040513d5f823e3d90fd5b61028b915060203d6020116102605761025281836102c4565b5f61013d565b634e487b7160e01b5f52601160045260245ffd5b6102be915060203d6020116102605761025281836102c4565b5f6100b3565b601f909101601f19168101906001600160401b038211908210176102e757604052565b634e487b7160e01b5f52604160045260245ffd5b51906001600160a01b038216820361023457565b90816020910312610234575160ff811681036102345790565b604d811161029157600a0a9056fe6080806040526004361015610015575b505b5f80fd5b5f905f3560e01c9081630a1b800514610cc95750806320bf30fc14610c855780632a0acc6a14610c415780632e54cd341461073c5780633aeef3d314610c125780633f4ba83a14610bb65780635c975abb14610b955780637faea7f114610aae5780638456cb5914610a4f57806389a3027114610a0b5780638b8b2c91146109ce5780638e7dc4c014610994578063a20d27d2146107cb578063b6b55f2514610815578063b98a9ef6146107d0578063c1419def146107cb578063cede91a4146107ad578063d2333be714610741578063d621fca71461073c578063d9caed12146103ea578063db006a75146101565763fd84802b0361000f57346101535780600319360112610153576040517f00000000000000000000000000000000000000000000000000000000000000006001600160a01b03168152602090f35b80fd5b50346101535760203660031901126101535760043580156103db57610179610f40565b610181610dfd565b9190506103cc5761019d6101986101cc9284610d9d565b610d6f565b6101c67f0000000000000000000000000000000000000000000000000000000000000000610d6f565b90610db0565b6040516370a0823160e01b81523060048201527f00000000000000000000000000000000000000000000000000000000000000006001600160a01b031690602081602481855afa80156103c1578391869161038c575b501061037d5783907f00000000000000000000000000000000000000000000000000000000000000009061025885303385610f5a565b803b1561034a576040516361d9ad3f60e11b81523360048201526001600160a01b037f0000000000000000000000000000000000000000000000000000000000000000166024820152604481018590529083908290606490829084905af190811561037257839161035d575b50506001600160a01b0316803b1561035957818091602460405180948193630852cd8d60e31b83528960048401525af1801561034e57610335575b505060405191825260208201527fe5b754fb1abb7f01b499791d0b820ae3b6af3424ac1c59768edb53f4ec31a92960403392a280f35b8161033f91610d39565b61034a57825f6102ff565b8280fd5b6040513d84823e3d90fd5b5080fd5b8161036791610d39565b61035957815f6102c4565b6040513d85823e3d90fd5b631e9acf1760e31b8452600484fd5b9150506020813d6020116103b9575b816103a860209383610d39565b81010312610011578290515f610222565b3d915061039b565b6040513d87823e3d90fd5b6318b4700960e31b8352600483fd5b634e70768d60e01b8252600482fd5b5034610153576060366003190112610153576004356001600160a01b03811690819003610359576024356001600160a01b038116918282036105885760443590610432610ee5565b811561072d576040516370a0823160e01b81523060048201528591602082602481845afa9182156103725783926106f6575b507f00000000000000000000000000000000000000000000000000000000000000006001600160a01b03169181830361066b5750505f1983036105c3576040516370a0823160e01b815230600482015293602085602481855afa94851561037257839561058c575b507f00000000000000000000000000000000000000000000000000000000000000006001600160a01b031693823b15610588576040516361d9ad3f60e11b81526001600160a01b039283166004820152918516602483015260448201529082908290606490829084905af1801561034e57610573575b50506040519182527f3115d1449a7b732c986cba18244e897a450f61e1bb8d589cd2e69e6c8924f9f760203393a480f35b8161057d91610d39565b61058857835f610542565b8380fd5b925093506020823d6020116105bb575b816105a960209383610d39565b8101031261001157859151935f6104cc565b3d915061059c565b91927f00000000000000000000000000000000000000000000000000000000000000006001600160a01b031692803b1561034a576040516361d9ad3f60e11b81526001600160a01b03928316600482015291841660248301526044820185905282908290606490829084905af1801561034e576105735750506040519182527f3115d1449a7b732c986cba18244e897a450f61e1bb8d589cd2e69e6c8924f9f760203393a480f35b9093949250849150106106e75760405163a9059cbb60e01b60208201526001600160a01b03919091166024820152604480820184905281526106b8906106b2606482610d39565b82610fa5565b6040519182527f3115d1449a7b732c986cba18244e897a450f61e1bb8d589cd2e69e6c8924f9f760203393a480f35b631e9acf1760e31b8552600485fd5b925090506020823d602011610725575b8161071360209383610d39565b8101031261001157859151905f610464565b3d9150610706565b634e70768d60e01b8552600485fd5b610d01565b50346101535760203660031901126101535760043561075e610ee5565b60015481811461079e5760407fd72ef688fa430b6a285b84371ba35e8a8e0762b32c1deb7be9d9c111ca79f5ea918151908152836020820152a160015580f35b634e70768d60e01b8352600483fd5b50346101535780600319360112610153576020600154604051908152f35b610d1e565b50346101535780600319360112610153576040517f00000000000000000000000000000000000000000000000000000000000000006001600160a01b03168152602090f35b503461001157602036600319011261001157600435610832610ee5565b8015610985577f000000000000000000000000000000000000000000000000000000000000000061086582303384610f5a565b60405163095ea7b360e01b81526001600160a01b037f000000000000000000000000000000000000000000000000000000000000000081166004830181905260248301859052921691906020816044815f875af1801561094d57610958575b50803b1561001157604051631e573fb760e31b81526001600160a01b038316600482015260248101849052905f908290604490829084905af1801561094d57610938575b506040519182527f5548c837ab068cf56a2c2479df0882a4922fd203edb7517321831d95078c5f6260203393a380f35b6109459193505f90610d39565b5f915f610908565b6040513d5f823e3d90fd5b6109799060203d60201161097e575b6109718183610d39565b810190610dce565b6108c4565b503d610967565b634e70768d60e01b5f5260045ffd5b34610011575f3660031901126100115760206040517f00000000000000000000000000000000000000000000000000000000000000008152f35b34610011575f36600319011261001157602060405160ff7f0000000000000000000000000000000000000000000000000000000000000000168152f35b34610011575f366003190112610011576040517f00000000000000000000000000000000000000000000000000000000000000006001600160a01b03168152602090f35b34610011575f36600319011261001157610a67610ee5565b610a6f610f40565b610a77610f40565b600160ff195f5416175f557f62e78cea01bee320cd4e420270b5ea74000d11b0c9f74754ebdbfc544b05a2586020604051338152a1005b34610011575f36600319011261001157610ac6610dfd565b6040516370a0823160e01b815230600482015290925090506020816024817f00000000000000000000000000000000000000000000000000000000000000006001600160a01b03165afa90811561094d575f91610b62575b6020610b5a846101c6610b546101987f000000000000000000000000000000000000000000000000000000000000000088610d9d565b91610d6f565b604051908152f35b90506020813d602011610b8d575b81610b7d60209383610d39565b8101031261001157516020610b1e565b3d9150610b70565b34610011575f36600319011261001157602060ff5f54166040519015158152f35b34610011575f36600319011261001157610bce610ee5565b610bd6610f25565b610bde610f25565b60ff195f54165f557f5db9ee0a495bf2e6ff9c91a7834c1ba4fdd244a5e8aa4e537bd38aeae4b073aa6020604051338152a1005b34610011575f366003190112610011576060610c2c610dfd565b90604051921515835260208301526040820152f35b34610011575f366003190112610011576040517f00000000000000000000000000000000000000000000000000000000000000006001600160a01b03168152602090f35b34610011575f366003190112610011576040517f00000000000000000000000000000000000000000000000000000000000000006001600160a01b03168152602090f35b34610011575f366003190112610011576020907f00000000000000000000000000000000000000000000000000000000000000008152f35b34610011575f366003190112610011576020604051620f42408152f35b34610011575f36600319011261001157602060405160068152f35b90601f8019910116810190811067ffffffffffffffff821117610d5b57604052565b634e487b7160e01b5f52604160045260245ffd5b90620f4240820291808304620f42401490151715610d8957565b634e487b7160e01b5f52601160045260245ffd5b81810292918115918404141715610d8957565b8115610dba570490565b634e487b7160e01b5f52601260045260245ffd5b90816020910312610011575180151581036100115790565b519069ffffffffffffffffffff8216820361001157565b604051633fabe5a360e21b815260a0816004817f00000000000000000000000000000000000000000000000000000000000000006001600160a01b03165afa91821561094d575f915f93610e8f575b507f000000000000000000000000000000000000000000000000000000000000000082128015610e7b57929190565b50824203428111610d895760015410929190565b9150915060a0813d60a011610edd575b81610eac60a09383610d39565b8101031261001157610ebd81610de6565b506020810151610ed4608060608401519301610de6565b5090915f610e4c565b3d9150610e9f565b7f00000000000000000000000000000000000000000000000000000000000000006001600160a01b03163303610f1757565b6282b42960e81b5f5260045ffd5b60ff5f541615610f3157565b638dfc202b60e01b5f5260045ffd5b60ff5f5416610f4b57565b63d93c066560e01b5f5260045ffd5b6040516323b872dd60e01b60208201526001600160a01b039283166024820152929091166044830152606480830193909352918152610fa391610f9e608483610d39565b610fa5565b565b81516001600160a01b03909116915f91829160200182855af13d15611043573d67ffffffffffffffff8111610d5b576110009160405191610ff06020601f19601f8401160184610d39565b82523d5f602084013e5b8361104f565b8051908115159182611028575b50506110165750565b635274afe760e01b5f5260045260245ffd5b61103b9250602080918301019101610dce565b155f8061100d565b61100090606090610ffa565b90611073575080511561106457805190602001fd5b630a12f52160e11b5f5260045ffd5b815115806110a4575b611084575090565b639996b31560e01b5f9081526001600160a01b0391909116600452602490fd5b50803b1561107c56fea26469706673582212209c3f4b167d778631d849a88d50400640a56d0f7686e919cb4fee6f23ccc1725f64736f6c634300081b0033",
    "sourcePath": "/Users/maxwolff/superstate-src/onchain-redemptions/src/RedemptionYield.sol",
    "compiler": {
        "name": "solc",
        "version": "0.8.27+commit.40a35a09"
    },
    "functionHashes": {
        "ADMIN()": "2a0acc6a",
        "CHAINLINK_FEED_ADDRESS()": "20bf30fc",
        "CHAINLINK_FEED_DECIMALS()": "8b8b2c91",
        "CHAINLINK_FEED_PRECISION()": "8e7dc4c0",
        "COMPOUND()": "b98a9ef6",
        "MINIMUM_ACCEPTABLE_PRICE()": "0a1b8005",
        "USDC()": "89a30271",
        "USDC_DECIMALS()": "c1419def",
        "USDC_PRECISION()": "d621fca7",
        "USTB()": "fd84802b",
        "USTB_DECIMALS()": "a20d27d2",
        "USTB_PRECISION()": "2e54cd34",
        "deposit(uint256)": "b6b55f25",
        "getChainlinkPrice()": "3aeef3d3",
        "maxUstbRedemptionAmount()": "7faea7f1",
        "maximumOracleDelay()": "cede91a4",
        "pause()": "8456cb59",
        "paused()": "5c975abb",
        "redeem(uint256)": "db006a75",
        "setMaximumOracleDelay(uint256)": "d2333be7",
        "unpause()": "3f4ba83a",
        "withdraw(address,address,uint256)": "d9caed12"
    },
    "gasEstimates": {
        "creation": {
            "codeDepositCost": "864600",
            "executionCost": "infinite",
            "totalCost": "infinite"
        },
        "external": {
            "": "557",
            "ADMIN()": "infinite",
            "CHAINLINK_FEED_ADDRESS()": "infinite",
            "CHAINLINK_FEED_DECIMALS()": "infinite",
            "CHAINLINK_FEED_PRECISION()": "infinite",
            "COMPOUND()": "infinite",
            "MINIMUM_ACCEPTABLE_PRICE()": "infinite",
            "USDC()": "infinite",
            "USDC_DECIMALS()": "500",
            "USDC_PRECISION()": "566",
            "USTB()": "infinite",
            "USTB_DECIMALS()": "434",
            "USTB_PRECISION()": "236",
            "deposit(uint256)": "infinite",
            "getChainlinkPrice()": "infinite",
            "maxUstbRedemptionAmount()": "infinite",
            "maximumOracleDelay()": "2616",
            "pause()": "infinite",
            "paused()": "2404",
            "redeem(uint256)": "infinite",
            "setMaximumOracleDelay(uint256)": "infinite",
            "unpause()": "infinite",
            "withdraw(address,address,uint256)": "infinite"
        },
        "internal": {
            "_getChainlinkPrice()": "infinite",
            "_requireAuthorized()": "infinite",
            "_setMaximumOracleDelay(uint256)": "infinite"
        }
    }
}